:020000040000fa
:080000000002040000000000f2
:020000040000fa
:04000800c80200002a
:020000040000fa
:04000c00c802000026
:020000040000fa
:04001000c802000022
:020000040000fa
:04001400c80200001e
:020000040000fa
:04001800c80200001a
:020000040000fa
:04001c00c802000016
:020000040000fa
:04002000c802000012
:020000040000fa
:04002400c80200000e
:020000040000fa
:04002800c80200000a
:020000040000fa
:04002c00c802000006
:020000040000fa
:04003000c802000002
:020000040000fa
:04003400c8020000fe
:020000040000fa
:04003800c8020000fa
:020000040000fa
:04003c00c8020000f6
:020000040000fa
:04004000c8020000f2
:020000040000fa
:04004400c8020000ee
:020000040000fa
:04004800c8020000ea
:020000040000fa
:04004c00c8020000e6
:020000040000fa
:04005000c8020000e2
:020000040000fa
:04005400c8020000de
:020000040000fa
:04005800c8020000da
:020000040000fa
:04005c00c8020000d6
:020000040000fa
:04006000c8020000d2
:020000040000fa
:04006400c8020000ce
:020000040000fa
:04006800c8020000ca
:020000040000fa
:04006c00c8020000c6
:020000040000fa
:04007000c8020000c2
:020000040000fa
:04007400c8020000be
:020000040000fa
:04007800c8020000ba
:020000040000fa
:04007c00c8020000b6
:020000040000fa
:04008000c8020000b2
:020000040000fa
:04008400c8020000ae
:020000040000fa
:04008800c8020000aa
:020000040000fa
:04008c00c8020000a6
:020000040000fa
:04009000c8020000a2
:020000040000fa
:04009400c80200009e
:020000040000fa
:04009800c80200009a
:020000040000fa
:04009c00c802000096
:020000040000fa
:0400a000c802000092
:020000040000fa
:0400a400c80200008e
:020000040000fa
:0400a800c80200008a
:020000040000fa
:0400ac00c802000086
:020000040000fa
:0400b000c802000082
:020000040000fa
:0400b400c80200007e
:020000040000fa
:0400b800c80200007a
:020000040000fa
:0400bc00c802000076
:020000040000fa
:0400c000c802000072
:020000040000fa
:0400c400c80200006e
:020000040000fa
:0400c800c80200006a
:020000040000fa
:0400cc00c802000066
:020000040000fa
:0400d000c802000062
:020000040000fa
:0400d400c80200005e
:020000040000fa
:0400d800c80200005a
:020000040000fa
:0400dc00c802000056
:020000040000fa
:0400e000c802000052
:020000040000fa
:0400e400c80200004e
:020000040000fa
:0400e800c80200004a
:020000040000fa
:0400ec00c802000046
:020000040000fa
:0400f000c802000042
:020000040000fa
:0400f400c80200003e
:020000040000fa
:0400f800c80200003a
:020000040000fa
:0400fc00c802000036
:020000040000fa
:04010000c802000031
:020000040000fa
:04010400c80200002d
:020000040000fa
:04010800c802000029
:020000040000fa
:04010c00c802000025
:020000040000fa
:04011000c802000021
:020000040000fa
:04011400c80200001d
:020000040000fa
:04011800c802000019
:020000040000fa
:04011c00c802000015
:020000040000fa
:04012000c802000011
:020000040000fa
:04012400c80200000d
:020000040000fa
:04012800c802000009
:020000040000fa
:04012c00c802000005
:020000040000fa
:04013000c802000001
:020000040000fa
:04013400c8020000fd
:020000040000fa
:04020800c802000028
:020000040000fa
:04020c00c802000024
:020000040000fa
:04021000c802000020
:020000040000fa
:04021400c80200001c
:020000040000fa
:04021800c802000018
:020000040000fa
:04021c00c802000014
:020000040000fa
:04022000c802000010
:020000040000fa
:04022400c80200000c
:020000040000fa
:04022800c802000008
:020000040000fa
:04022c00c802000004
:020000040000fa
:04023000c802000000
:020000040000fa
:04023400c8020000fc
:020000040000fa
:04023800c8020000f8
:020000040000fa
:04023c00c8020000f4
:020000040000fa
:04024000c8020000f0
:020000040000fa
:04024400c8020000ec
:020000040000fa
:04024800c8020000e8
:020000040000fa
:04024c00c8020000e4
:020000040000fa
:04025000c8020000e0
:020000040000fa
:04025400c8020000dc
:020000040000fa
:04025800c8020000d8
:020000040000fa
:04025c00c8020000d4
:020000040000fa
:04026000c8020000d0
:020000040000fa
:04026400c8020000cc
:020000040000fa
:04026800c8020000c8
:020000040000fa
:04026c00c8020000c4
:020000040000fa
:04027000c8020000c0
:020000040000fa
:04027400c8020000bc
:020000040000fa
:04027800c8020000b8
:020000040000fa
:04027c00c8020000b4
:020000040000fa
:04028000c8020000b0
:020000040000fa
:04028400c8020000ac
:020000040000fa
:04028800c8020000a8
:020000040000fa
:04028c00c8020000a4
:020000040000fa
:04029000c8020000a0
:020000040000fa
:04029400c80200009c
:020000040000fa
:04029800c802000098
:020000040000fa
:04029c00c802000094
:020000040000fa
:0402a000c802000090
:020000040000fa
:0402a400c80200008c
:020000040000fa
:0402a800c802000088
:020000040000fa
:0402ac00c802000084
:020000040000fa
:0402b000c802000080
:020000040000fa
:0402b400c80200007c
:020000040000fa
:0402b800c802000078
:020000040000fa
:0402bc00c802000074
:020000040000fa
:0402c000c802000070
:020000040000fa
:0402c400c80200006c
:020000040000fa
:0402c800c802000068
:020000040000fa
:0402cc00c802000064
:020000040000fa
:0402d000c802000060
:020000040000fa
:0402d400c80200005c
:020000040000fa
:0402d800c802000058
:020000040000fa
:0402dc00c802000054
:020000040000fa
:0402e000c802000050
:020000040000fa
:0402e400c80200004c
:020000040000fa
:0402e800c802000048
:020000040000fa
:0402ec00c802000044
:020000040000fa
:0402f000c802000040
:020000040000fa
:0402f400c80200003c
:020000040000fa
:0402f800c802000038
:020000040000fa
:0402fc00c802000034
:020000040000fa
:04030000c80200002f
:020000040000fa
:04030400c80200002b
:020000040000fa
:04030800c802000027
:020000040000fa
:04030c00c802000023
:020000040000fa
:04031000c80200001f
:020000040000fa
:04031400c80200001b
:020000040000fa
:04031800c802000017
:020000040000fa
:04031c00c802000013
:020000040000fa
:04032000c80200000f
:020000040000fa
:04032400c80200000b
:020000040000fa
:04032800c802000007
:020000040000fa
:04032c00c802000003
:020000040000fa
:04033000c8020000ff
:020000040000fa
:04033400c8020000fb
:020000040000fa
:100400000f8020000e7f22000e01880000000000f7
:10041000000020000000e000020032000001200087
:1004200020028800140007006f0007000000e000b1
:1004300003003a0000002000010020000200370005
:100440000000200001002000810f70000100320038
:1004500014000700000020000000e000020032004d
:10046000000002000000000076060200000000000c
:100470000040da000000fe004440a9000000200017
:100480000000e0000300320000002000a00188000e
:100490004440a800000006008a1f78008b1f7800e7
:1004a0000000060091018800800478000000eb0045
:1004b0001a003700e284440032a0b4009905ba0063
:1004c000e284440032a0b4009906ba00e2844400f9
:1004d00032a0b4000006eb00476fde00fd07b2005b
:1004e000636ce10003003a00ebff07000000eb0043
:1004f0000a003700606ce10004003a00005deb0088
:100500008b05e900fdff3e00040037006168e10053
:10051000010032000086eb000b00070019c7ba008b
:100520001905ba000e04e00003003a000a00e000da
:10053000e0ff3a0000000600fe07b2009e018800be
:100540008a047800f5ff3700395dba008b05e900b1
:100550000c003200295dba008b05e900080032006a
:100560000c00e00003003a00e284440032a0b40032
:10057000f5ff370019ddba008b05e900faff3a00f4
:100580008904e800e184440032a0b40000000600c1
:100590000040da000000fe000800fa001007980092
:1005a0002107980032079800be009000010f7800e4
:1005b000070037002e00900010407800ae00900039
:1005c0008100e800210798000a0107001e0fe900da
:1005d0001e0078000000e000f6ff3a003e009000a8
:0c05e0000080fa0000000600000005008a
:020000040000fa
:1005ec000000fa00101a2000c011880080002800ba
:1005fc00801188000040200090118800dfa2a90023
:10060c00e1a2a8000080fa00000006000000fa0039
:10061c00101a2000c011880080002800801188006a
:10062c00004020009011880087c0a900910580002f
:10063c00f08f2f00008060000080a00090058800e3
:10064c0097c0a8000080fa00000006000200fa0023
:10065c00004f78000000000001178000000021000e
:10066c00008060000000e000fbff3a00000000008a
:10067c009111800000202000008060000000e0004c
:10068c00fbff3a001e00fb00a01188001e00fb00bf
:10069c000080fa00000006000200fa00004f78000b
:1006ac0000000000911180000020200000806000fc
:1006bc000000e000fbff3a001e00fb00a0118800c8
:1006cc001e00fb000080fa00000006000000fa008b
:1006dc00e1a2a90000000000901180006100600000
:1006ec000000e000fcff3200b011800000407800f8
:1006fc000080fa00000006000400fa0010079800c1
:10070c00020037001e407800d0ff07001e0090004a
:10071c0010407800004f78001e80fb000000ea00bb
:10072c004f00de00004078009e0090008100e80041
:10073c00110798000004e000f2ff3a000080fa0074
:10074c00000006000400fa002047980000c3b30024
:10075c00beff070080c5b300bcff07002e40900011
:10076c000080fb004400de00004f78001e40780043
:10077c00e94f50000400360071c3b3001ec04000a6
:10078c00b2ff07000300370001c3b3001ec04000d6
:10079c00aeff07002e4090006f4f60001e407800a7
:1007ac00e94f50000400360071c3b3001ec0400076
:1007bc00a6ff07000300370001c3b3001ec04000b2
:1007cc00a2ff07000080fa00000006000400fa00f7
:1007dc002047980000c3b3009cff070080c5b300fe
:1007ec009aff07002e4090000080fb004400de00c2
:1007fc00004f78001e407800e94f5000040036008e
:10080c0071c3b3001ec0400090ff07000300370007
:10081c0001c3b3001ec040008cff07002e409000a7
:10082c006f4f60001e407800e94f50000400360006
:10083c0071c3b3001ec0400084ff070003003700e3
:10084c0001c3b3001ec0400080ff07000080fa0007
:10085c00000006000000fa003104800000002800af
:10086c00008060000000e000070032009111800061
:10087c0000402000008060000000e0000200320018
:10088c0010002000010037000000eb000040780051
:10089c000080fa00000006000000fa00300480001e
:1008ac004e00de00614060000080fb0000f0a700fd
:1008bc000000ea000000ea004f00de000040780073
:1008cc000080fa00000006000000fa009011800081
:1008dc004800de00614060000080fb0000f0a700d3
:1008ec000000ea000000ea004f00de000040780043
:1008fc000080fa00000006000000fa000000000072
:10090c0090118000610060000000e000fcff3200ec
:10091c0090118000620060000000e00001003200d5
:10092c003222a900b0118000004078000080fa004b
:10093c00000006000200fa00004f780000000000e2
:10094c009111800000202000008060000000e00079
:10095c00fbff3a001e80fb00a01188000080fa000b
:10096c00000006000000fa00901180000080fa00e0
:10097c00000006000000fa00800020000011880032
:10098c002222ef00101a20004011880021e2a8005a
:10099c002342a8000080fa00000006000000fa00c4
:1009ac00f4ff07000080fa00000006000000fa00c7
:1009bc000000000010118000610060000000e000e9
:1009cc00fcff320010118000620060000000e000ab
:1009dc00010032002222a900301180000040780072
:1009ec000080fa00000006000200fa00004f7800b8
:1009fc000000000011118000002020000080600029
:100a0c000000e000fbff3a001e80fb002011880074
:100a1c000080fa00000006000000fa0010118000af
:100a2c0000407800614060000080fb0000f0a700ef
:100a3c000000ea000000ea004f00de0000407800f1
:100a4c000080fa00000006000000fa00111180007e
:100a5c0000102000008060000000e0000700320061
:100a6c001111800000402000008060000000e000b8
:100a7c000200320010002000010037000000eb00e3
:100a8c00004078000080fa00000006000000fa0028
:100a9c00101180004800de00614060000080fb0007
:100aac0000f0a7000000ea000000ea004f00de00a2
:100abc00004078000080fa00000006000000fa00f8
:100acc00101180000080fa00000006000000fa00ff
:100adc0021e2a8002342a8000080fa0000000600d2
:100aec000000fa0021e2a9002342a9000080fa00cc
:100afc00000006000000fa000001eb00600420007a
:100b0c007105200023742000804978008149780009
:100b1c008249780000002300203a88004827ef0023
:100b2c000080fa00000006000000fa000000280017
:100b3c0090088800803e2000700888008500a9007d
:100b4c000080fa00000006000000fa0011e1a90084
:100b5c001021a90010c1a90081088000f0fc2f0011
:100b6c0000806000800888000621ef00f0ff200064
:100b7c006008880031058000f0ff280000806000cc
:100b8c0000c0a0003005880084e0a90094e0a80013
:100b9c0031058000f0ff28008080600000002600f6
:100bac00010070003005880011e1a8000080fa00f7
:100bbc00000006000000fa001fe1a9001e21a90098
:100bcc001ec1a900f1088000f0fc2f00008060001d
:100bdc00f00888001421ef00f00f2000d0088800e6
:100bec008760a9009760a80081058000f0ff2800ad
:100bfc0080806000000026000100700080058800e5
:100c0c001fe1a8000080fa00000006000000fa00b6
:100c1c00c002a900c022a900c602a900d202a900e4
:100c2c00dea2a9002c03a8000080fa000000060038
:100c3c000000fa0059ff07000080fa0000000600cf
:100c4c000200fa00004f78001e40780066ff070093
:100c5c000080fa00000006000000fa00a0c0b300fb
:100c6c00f7ff07000080fa00000006000400fa00fd
:100c7c0020479800ae40900080c2b30080cf500057
:100c8c0005003600ae40900080cdb30000c040009f
:100c9c0020479800060037002e409000f44f50007b
:100cac00030036002e4090007440500020479800fe
:100cbc000000eb00000f78000300370000c2b30007
:100ccc00dfff07001e0fe8002e4090000080fb00a5
:100cdc009e0f5000f9ff3c000080fa000000060057
:0c0cec000000fa0083ff0700ffff370044
:020000040000fa
:020000040002f8
:04aff800bff900009d
:020000040000fa
:020000040002f8
:04affc007f3f000093
:00000001FF
